:02000000932942
:1000060083120313881488180A2808100B2808146A
:10001600871D4A28871107160330B6000030B7003F
:1000260080303706F00080307002031D1C28003037
:100036003602031C3D2801303602F0000030031C56
:10004600013E3702F1007008203E84000008860059
:100056000430FB008E30FC001230FD00FD0B312811
:10006600FC0B3128FB0B312800000130B602031CC3
:10007600B70313288716871A42280711432807153E
:1000860007100718482807124928071688288518D0
:100096008828871407110330B6000030B700803077
:1000A6003706F00080307002031D5B2800303602F0
:1000B600031C7C2801303602F0000030031C013E90
:1000C6003702F1007008203E8400000886000430E4
:1000D600FB008E30FC001230FD00FD0B7028FC0B7F
:1000E6007028FB0B702800000130B602031CB70312
:1000F60052288712871A8128871082288714871525
:1001060087198728071088280714881088188D28CB
:0801160008108E2808140800EF
:10011E00831203138810881896280810972808143D
:10012E0085189D28051C9D2803209E289E280800C2
:0E013E008312031335088A003408820008007B
:10014C008312031388148818AD280810AE280814DD
:10015C00871D1B290C30B6000030B70080303706E5
:10016C00F00080307002031DBD2800303602031CE5
:10017C00DE2801303602F0000030031C013E37024D
:10018C00F1007008203E8400000886000430FB005B
:10019C008E30FC001230FD00FD0BD228FC0BD22857
:1001AC00FB0BD22800000130B602031CB703B428A5
:1001BC00871107160330B6000030B70080303706C1
:1001CC00F00080307002031DED2800303602031C55
:1001DC000E2901303602F0000030031C013E3702BC
:1001EC00F1007008203E8400000886000430FB00FB
:1001FC008E30FC001230FD00FD0B0229FC0B022995
:10020C00FB0B022900000130B602031CB703E428E3
:10021C008716871A132907111429071507100718B1
:10022C00192907121A29071685291430B60000302F
:10023C00B70080303706F00080307002031D28298B
:10024C0000303602031C492901303602F000003020
:10025C00031C013E3702F1007008203E84000008A8
:10026C0086000430FB008E30FC001230FD00FD0BCC
:10027C003D29FC0B3D29FB0B3D2900000130B6024A
:10028C00031CB7031F29871407110330B600003075
:10029C00B70080303706F00080307002031D5829FB
:1002AC0000303602031C792901303602F000003090
:1002BC00031C013E3702F1007008203E8400000848
:1002CC0086000430FB008E30FC001230FD00FD0B6C
:1002DC006D29FC0B6D29FB0B6D2900000130B6025A
:1002EC00031CB7034F298712871A7E2987107F2991
:1002FC0087148715871984290710852907148F20DF
:02030C000800E7
:10030E009F208A110A128000840AB40A0319B50AC2
:08031E00F003031D872908000C
:10032600013083120313A0000230A1000330A200A3
:100336000430A3000530A4000630A5000730A6004F
:100346000830A7000930A8001030A9001130AA0013
:100356001230AB001330AC001430AD001530AE00D7
:100366001630AF001730B0001830B1001930B200A7
:100376002030B300073083169F00860106088700E9
:100386000708880083128601060887000708880088
:1003960007148715831685148518D3290510D429C3
:1003A600051483120518D929A620DC298518DC290D
:0603B6000320D429DD291B
:02400E004A2F37
:00000001FF
